:020000040800F2
:10000000000001205D070008AD070008AD070008EB
:10001000AD070008AD070008AD07000800000000AC
:10002000000000000000000000000000AD07000814
:10003000AD07000800000000AD070008AD0700088C
:10004000AD070008AD070008AD070008AD070008C0
:10005000AD070008AD070008AD070008AD070008B0
:10006000AD070008AD070008AD070008AD070008A0
:10007000AD070008AD070008AD070008AD07000890
:10008000AD070008AD070008AD070008000000003C
:10009000000000000000000000000000AD070008A4
:1000A000AD070008AD070008AD070008AD07000860
:1000B000AD070008AD070008AD070008AD07000850
:1000C000AD070008AD070008AD070008AD07000840
:1000D000AD070008AD070008AD07000800000000EC
:1000E000AD070008AD070008AD07000800000000DC
:1000F000000000000000000000000000AD07000844
:1001000000000000AD070008AD070008AD070008BB
:1001100000000000000000000000000000000000DF
:1001200031060008AD070008AD070008AD0700085C
:10013000AD07000800000000000000000000000003
:10014000000000000000000000000000AD070008F3
:10015000AD070008AD070008AD070008AD070008AF
:10016000AD070008AD070008000000000000000017
:10017000000000000000000000000000000000007F
:1001800000000000AD0700080000000000000000B3
:04019000AD070008AF
:1001940010B5054C237833B9044B13B10448AFF3BD
:1001A40000800123237010BD3000002000000000F7
:1001B400F807000808B5034B1BB103490348AFF324
:1001C400008008BD0000000034000020F80700088B
:1001D40080B483B000AF0346FB71084B1B68FA7907
:1001E400012101FA02F21146044A0B43136000BFD5
:1001F4000C37BD465DF8047B704700BF30380240C1
:1002040090B482B000AF0446084611461A4623460D
:10021400FB710346BB710B467B7113463B71FA7944
:10022400564913465B001344DB000B441B681968F2
:10023400BB795B00032202FA03F3DB431C46FA7921
:100244004E4813465B001344DB0003441B6801EA79
:1002540004021A60FA79494913465B001344DB002F
:100264000B441B6819687A79BB795B0002FA03F3C3
:100274001C46FA79414813465B001344DB000344EF
:100284001B6841EA04021A60FA793C4913465B0090
:100294001344DB000B4404331B681968BB79012247
:1002A40002FA03F3DB431C46FA79344813465B0035
:1002B4001344DB00034404331B6801EA04021A609C
:1002C400FA792E4913465B001344DB000B440433D4
:1002D4001B6819683B7903F00102BB7902FA03F346
:1002E4001C46FA79254813465B001344DB0003449B
:1002F40004331B6841EA04021A60FA791F49134661
:100304005B001344DB000B440C331B681968BB7996
:100314005B00032202FA03F3DB431C46FA79174815
:1003240013465B001344DB0003440C331B6801EAEF
:1003340004021A60FA79114913465B001344DB0086
:100344000B440C331B6819683B795B1003F0030200
:10035400BB795B0002FA03F31C46FA79074813469B
:100364005B001344DB0003440C331B6841EA0402C2
:100374001A6000BF0837BD4690BC704700000020DB
:1003840090B484B000AF0346FB710B46BB711346B7
:100394007B71FA792C4913465B001344DB000B4450
:1003A4001B681B68BA795200032101FA02F21A4051
:1003B400BB795B0022FA03F3012B3DD17B79002B3F
:1003C4001BD0FA79204913465B001344DB000B442D
:1003D40014331B681968BB79012202FA03F31C4623
:1003E400FA79194813465B001344DB0003441433C1
:1003F4001B6841EA04021A601BE0FA7912491346A9
:100404005B001344DB000B4414331B681968BB798D
:10041400012202FA03F3DB431C46FA790A48134625
:100424005B001344DB00034414331B6801EA040239
:100434001A600023FB7301E00123FB73FB7B184666
:100444001037BD4690BC70470000002090B482B0C5
:1004540000AF0446084611461A462346FB7103467C
:10046400BB710B467B7113463B71FB79012B06D1A3
:10047400284B1B68274A43F40013136005E0254BFF
:100484001B68244A43F480031360234B1B68224AED
:1004940023F001031360204B1B681F4A23F44033ED
:1004A40013601D4B1B68BA79120411461A4A0B4398
:1004B4001360194B1B68184A23F0C0031360164BD2
:1004C4001B687A7992011146134A0B4313607B79B6
:1004D400022B0DD0104B1B680F4A23F0606313608E
:1004E4000D4B1B683A79520611460B4A0B431360B5
:1004F400094B1B68084A43F400731360064B1B68DE
:10050400054A43F48063136000BF0837BD4690BCBE
:10051400704700BF303802401064024080B485B098
:1005240000AFF860B9607A60FB702B4A7B68136097
:100534002A4AFB6813602A4ABB681360294B1B686C
:10054400284A23F4C0531360264B1B68FA78D2025E
:100554001146244A0B431360224B1B68214A23F49F
:10056400C04313601F4B1B68FA78520311461D4A9F
:100574000B4313603B7E002B0BD11B4B1B681A4AA9
:1005840043F004031360184B1B68174A43F003033A
:100594001360144B1B68134A23F4C0031360114BFC
:1005A4001B683A7F520511460E4A0B4313600D4BEC
:1005B4001B680C4A23F0C07313600A4B1B683A7F14
:1005C400D2051146074A0B43136000BF1437BD46DA
:1005D4005DF8047B704700BF146402401864024055
:1005E4001C640240106402402464024080B400AFE2
:1005F4000C4B1B680B4A43F010031360094B1B6838
:10060400084A43F004031360074B3D221A60054B6C
:100614001B68044A43F00103136000BFBD465DF844
:10062400047B7047106402400864024080B500AF48
:100634000D4B1B6803F02003002B07D00A4B1B68EB
:1006440003F00803002B01D100F012F8074B1B68DC
:10065400064A43F020031360044B1B68034A43F02B
:100664000803136000BF80BD0064024008640240B8
:1006740080B500AF0A4B1A680A4B1B689A420CD12A
:10068400074BD3F88C21074BD3F88C319A4204D111
:10069400012201210020FFF773FE00BF80BD00BFCF
:1006A400DC0100204C00002080B584B002AF1E4B5A
:1006B40064221A600023FB7111E0FB791A4A52F894
:1006C4002320FB7901336432174941F82320FB7955
:1006D400164A002142F82310FB790133FB71FB79A0
:1006E400632BEAD90020FFF773FD002301220121C7
:1006F4000020FFF785FD0023022203210220FFF7DB
:10070400A5FE0123019300230093022364220749D9
:100714000548FFF703FF064B1B68054A43F0807347
:100724001360FFF763FFFEE7DC0100204C000020AC
:1007340004E100E080B400AF064BD3F88830054AEA
:1007440043F47003C2F8883000BFBD465DF8047BF3
:10075400704700BF00ED00E0DFF834D00D480E49CB
:100764000E4A002302E0D458C4500433C4188C4207
:10077400F9D30B4A0B4C002301E013600432A2426C
:10078400FBD3FFF7D7FF00F011F8FFF78DFF704799
:10079400000001200000002030000020180800089C
:1007A400300000206C030020FEE7000070B50D4D02
:1007B4000D4C641BA4100026A64209D10B4D0C4C11
:1007C40000F018F8641BA4100026A64205D170BDE1
:1007D40055F8043B98470136EEE755F8043B984733
:1007E4000136F2E710080008100800081008000895
:1007F40014080008F8B500BFF8BC08BC9E46704752
:0C080400F8B500BFF8BC08BC9E46704769
:04081000B901000822
:040814009501000842
:100818000000024004000240080002400C000240B0
:100828001000024014000240000402400404024088
:10083800080402400C040240100402401404024060
:040000050800075D8B
:00000001FF
