:020000040800F2
:1000000000000120C10600081107000811070008C0
:100010001107000811070008110700080000000080
:1000200000000000000000000000000011070008B0
:100030001107000800000000110700081107000860
:100040001107000811070008110700081107000830
:100050001107000811070008110700081107000820
:100060001107000811070008110700081107000810
:100070001107000811070008110700081107000800
:100080001107000811070008110700080000000010
:100090000000000000000000000000001107000840
:1000A00011070008110700081107000811070008D0
:1000B00011070008110700081107000811070008C0
:1000C00011070008110700081107000811070008B0
:1000D00011070008110700081107000800000000C0
:1000E00011070008110700081107000800000000B0
:1000F00000000000000000000000000011070008E0
:10010000000000001107000811070008110700088F
:1001100000000000000000000000000000000000DF
:10012000110700081107000811070008110700084F
:10013000110700080000000000000000000000009F
:10014000000000000000000000000000110700088F
:10015000110700081107000811070008110700081F
:10016000110700081107000800000000000000004F
:10017000000000000000000000000000000000007F
:10018000000000001107000800000000000000004F
:04019000110700084B
:1001940010B5054C237833B9044B13B10448AFF3BD
:1001A40000800123237010BD4800002000000000DF
:1001B4005C07000808B5034B1BB103490348AFF3C0
:1001C400008008BD000000004C0000205C0700080F
:1001D40080B483B000AF0346FB71084B1B68FA7907
:1001E400012101FA02F21146044A0B43136000BFD5
:1001F4000C37BD465DF8047B704700BF30380240C1
:1002040090B482B000AF0446084611461A4623460D
:10021400FB710346BB710B467B7113463B71FA7944
:10022400564913465B001344DB000B441B681968F2
:10023400BB795B00032202FA03F3DB431C46FA7921
:100244004E4813465B001344DB0003441B6801EA79
:1002540004021A60FA79494913465B001344DB002F
:100264000B441B6819687A79BB795B0002FA03F3C3
:100274001C46FA79414813465B001344DB000344EF
:100284001B6841EA04021A60FA793C4913465B0090
:100294001344DB000B4404331B681968BB79012247
:1002A40002FA03F3DB431C46FA79344813465B0035
:1002B4001344DB00034404331B6801EA04021A609C
:1002C400FA792E4913465B001344DB000B440433D4
:1002D4001B6819683B7903F00102BB7902FA03F346
:1002E4001C46FA79254813465B001344DB0003449B
:1002F40004331B6841EA04021A60FA791F49134661
:100304005B001344DB000B440C331B681968BB7996
:100314005B00032202FA03F3DB431C46FA79174815
:1003240013465B001344DB0003440C331B6801EAEF
:1003340004021A60FA79114913465B001344DB0086
:100344000B440C331B6819683B795B1003F0030200
:10035400BB795B0002FA03F31C46FA79074813469B
:100364005B001344DB0003440C331B6841EA0402C2
:100374001A6000BF0837BD4690BC704700000020DB
:1003840090B484B000AF0346FB710B46BB711346B7
:100394007B71FA792C4913465B001344DB000B4450
:1003A4001B681B68BA795200032101FA02F21A4051
:1003B400BB795B0022FA03F3012B3DD17B79002B3F
:1003C4001BD0FA79204913465B001344DB000B442D
:1003D40014331B681968BB79012202FA03F31C4623
:1003E400FA79194813465B001344DB0003441433C1
:1003F4001B6841EA04021A601BE0FA7912491346A9
:100404005B001344DB000B4414331B681968BB798D
:10041400012202FA03F3DB431C46FA790A48134625
:100424005B001344DB00034414331B6801EA040239
:100434001A600023FB7301E00123FB73FB7B184666
:100444001037BD4690BC70470000002080B485B0D2
:1004540000AF03460A46FB711346BB710023FB73CE
:10046400FA790C4913465B001344DB000B44103348
:100474001B681B68BA79012101FA02F21A40BB79A0
:1004840022FA03F3FB73FB7B18461437BD465DF871
:10049400047B70470000002080B582B000AF0120CB
:1004A400FFF796FE00237B6009E07B68D9B2002346
:1004B40001220120FFF7A4FE7B6801337B607B6887
:1004C400022BF2DD03233B6009E03B68D9B202232F
:1004D40000220120FFF794FE3B6801333B603B6838
:1004E400062BF2DD00BF00BF0837BD4680BD00000B
:1004F40080B582B000AF284B1B68002B47D1002386
:100504007B6041E07B68DBB2002219460120FFF7E3
:1005140037FF00233B602AE03B68DBB20333DBB2E6
:1005240019460120FFF792FF0346002B1CD100F06F
:100534004FF83B68DBB20333DBB219460120FFF707
:1005440085FF0346002B0FD114493A6813465B001C
:100554001344CA187B6813441A78114B1A700E4B53
:1005640001221A6000F04AF83B6801333B603B68A3
:10057400032BD1DD7B68DBB2012219460120FFF792
:10058400FFFE7B6801337B607B68022BBADD00BF12
:100594000837BD4680BD00BF640000203000002045
:1005A4006800002080B400AF074B1B68012B05D105
:1005B400054B00221A60054B1B7800E0FF23184608
:1005C400BD465DF8047B704764000020680000208D
:1005D40080B483B000AF00237B6002E07B6801330A
:1005E4007B607B6847F22F529342F7DD00BF00BF68
:1005F4000C37BD465DF8047B7047000080B582B0BF
:1006040000AFFFF7CFFF03461A46134B1A700023BF
:100614007B6018E07B68D9B20F4B1B781A460F4BEE
:100624009B5C184601227B6802FA03F300EA03028A
:100634007B6842FA03F3DBB21A460020FFF7A0FE00
:100644007B6801337B607B68062BE3DD00BF00BF62
:100654000837BD4680BD00BF690000203C00002073
:1006640080B582B000AF0020FFF7B2FD00237B60AD
:1006740009E07B68D9B2002301220020FFF7C0FD06
:100684007B6801337B607B68062BF2DDFFF704FF98
:10069400FFF72EFFFCE7000080B400AF064BD3F851
:1006A4008830054A43F47003C2F8883000BFBD4661
:1006B4005DF8047B704700BF00ED00E0DFF834D044
:1006C4000D480E490E4A002302E0D458C4500433A6
:1006D400C4188C42F9D30B4A0B4C002301E013607D
:1006E4000432A242FBD3FFF7D7FF00F011F8FFF763
:1006F400B7FF7047000001200000002048000020E0
:100704007C070008480000206C000020FEE7000081
:1007140070B50D4D0D4C641BA4100026A64209D1E2
:100724000B4D0C4C00F018F8641BA4100026A642D4
:1007340005D170BD55F8043B98470136EEE755F8EE
:10074400043B98470136F2E7740700087407000871
:100754007407000878070008F8B500BFF8BC08BCA7
:100764009E467047F8B500BFF8BC08BC9E4670476B
:04077400B9010008BF
:0407780095010008DF
:10077C000000024004000240080002400C0002404D
:10078C001000024014000240000402400404024025
:10079C00080402400C0402401004024014040240FD
:1007AC000102030405060708092A00233F065B4FD4
:0807BC00666D7D077F6F0000F0
:04000005080006C128
:00000001FF
