:020000040800F2
:1000000000000120C10200081103000811030008CC
:10001000110300081103000811030008000000008C
:1000200000000000000000000000000011030008B4
:10003000110300080000000011030008110300086C
:100040001103000811030008110300081103000840
:100050001103000811030008110300081103000830
:100060001103000811030008110300081103000820
:100070001103000811030008110300081103000810
:10008000110300081103000811030008000000001C
:100090000000000000000000000000001103000844
:1000A00011030008110300081103000811030008E0
:1000B00011030008110300081103000811030008D0
:1000C00011030008110300081103000811030008C0
:1000D00011030008110300081103000800000000CC
:1000E00011030008110300081103000800000000BC
:1000F00000000000000000000000000011030008E4
:10010000000000001103000811030008110300089B
:1001100000000000000000000000000000000000DF
:10012000110300081103000811030008110300085F
:1001300011030008000000000000000000000000A3
:100140000000000000000000000000001103000893
:10015000110300081103000811030008110300082F
:100160001103000811030008000000000000000057
:10017000000000000000000000000000000000007F
:100180000000000011030008000000000000000053
:04019000110300084F
:1001940010B5054C237833B9044B13B10448AFF3BD
:1001A40000800123237010BD000000200000000027
:1001B4005C03000808B5034B1BB103490348AFF3C4
:1001C400008008BD00000000040000205C0300085B
:1001D400B0B48DB000AF2D4B1B6B2C4A43F002031F
:1001E40013632B4B1B682A4A23F0C0031360284B6C
:1001F400DB68274A43F04003D360254B1B68244A3D
:1002040023F4A8431360224B1B68214A43F4A843F8
:1002140013601F4B5B681E4A23F0E00353601D4BC1
:100224003C461D460FCD0FC495E80F0084E80F002F
:100234000023FB6225E0164B1B697B620023BB6233
:1002440002E0BB6A0133BB62BB6A40F6B732934239
:10025400F7DD0F4B1B693B627B6A03F00803002B3D
:100264000CD03A6A7B6A9A4208D0094AFB6A9B001E
:1002740007F130010B4453F8303C5361FB6A0133FE
:10028400FB62FB6A072BD6DDD2E700BF00380240D1
:10029400000402407403000880B400AF064BD3F896
:1002A4008830054A43F47003C2F8883000BFBD4665
:1002B4005DF8047B704700BF00ED00E0DFF834D048
:1002C4000D480E490E4A002302E0D458C4500433AA
:1002D400C4188C42F9D30B4A0B4C002301E0136081
:1002E4000432A242FBD3FFF7D7FF00F011F8FFF767
:1002F4006FFF704700000120000000200000002074
:100304009C030008000000201C000020FEE7000001
:1003140070B50D4D0D4C641BA4100026A64209D1E6
:100324000B4D0C4C00F018F8641BA4100026A642D8
:1003340005D170BD55F8043B98470136EEE755F8F2
:10034400043B98470136F2E794030008940300083D
:100354009403000898030008F8B500BFF8BC08BC73
:100364009E467047F8B500BFF8BC08BC9E4670476F
:1003740000000000200000004000000060000000B9
:1003840080000000A0000000C0000000E0000000A9
:04039400B9010008A3
:0403980095010008C3
:04000005080002C12C
:00000001FF
