:020000040800F2
:1000000000000120AD020008FD020008FD0200080A
:10001000FD020008FD020008FD02000800000000CB
:10002000000000000000000000000000FD020008C9
:10003000FD02000800000000FD020008FD020008AB
:10004000FD020008FD020008FD020008FD02000894
:10005000FD020008FD020008FD020008FD02000884
:10006000FD020008FD020008FD020008FD02000874
:10007000FD020008FD020008FD020008FD02000864
:10008000FD020008FD020008FD020008000000005B
:10009000000000000000000000000000FD02000859
:1000A000FD020008FD020008FD020008FD02000834
:1000B000FD020008FD020008FD020008FD02000824
:1000C000FD020008FD020008FD020008FD02000814
:1000D000FD020008FD020008FD020008000000000B
:1000E000FD020008FD020008FD02000800000000FB
:1000F000000000000000000000000000FD020008F9
:1001000000000000FD020008FD020008FD020008DA
:1001100000000000000000000000000000000000DF
:10012000FD020008FD020008FD020008FD020008B3
:10013000FD020008000000000000000000000000B8
:10014000000000000000000000000000FD020008A8
:10015000FD020008FD020008FD020008FD02000883
:10016000FD020008FD020008000000000000000081
:10017000000000000000000000000000000000007F
:1001800000000000FD020008000000000000000068
:04019000FD02000864
:1001940010B5054C237833B9044B13B10448AFF3BD
:1001A40000800123237010BD000000200000000027
:1001B400F005000808B5034B1BB103490348AFF32E
:1001C400008008BD0000000004000020F0050008C5
:1001D400B0B58EB000AF00237B6308E0796B0023D9
:1001E4000122412000F08AF87B6B01337B637B6B37
:1001F400062BF3DD214B3C461D460FCD0FC40FCD1E
:100204000FC495E8030084E8030000233B6330E057
:100214000023FB621DE03B6B9B0007F13802134493
:1002240053F8383C0121FA6A01FA02F21340002B18
:1002340006D0FB6A01221946412000F041F905E08D
:10024400FB6A00221946412000F03AF9FB6A0133A7
:10025400FB62FB6A062BDEDD0023BB6202E0BB6AA5
:100264000133BB62BB6A064A9342F8DD3B6B013340
:100274003B633B6B092BCBDDC7E700BF08060008D7
:100284003F420F0080B400AF064BD3F88830054AD4
:1002940043F47003C2F8883000BFBD465DF8047BA8
:1002A400704700BF00ED00E0DFF834D00D480E4980
:1002B4000E4A002302E0D458C4500433C4188C42BC
:1002C400F9D30B4A0B4C002301E013600432A24221
:1002D400FBD3FFF7D7FF00F065F9FFF779FF70470D
:1002E4000000012000000020000000203806000863
:1002F400000000201C000020FEE7000080B485B050
:1003040000AFB9607A603B600346FB73FB7B412B13
:1003140002D0422B64D0C7E0664B1B6B654A43F0A6
:10032400010313637B68032B3BD801A252F823F02B
:10033400450300085F030008770300088F030008E3
:100344005D4B1B68BA685200032101FA02F2D243E2
:100354001146594A0B40136023E0574B1B68BA6897
:100364005200012101FA02F21146534A0B43136071
:1003740017E0514B1B68BA685200022101FA02F2DD
:1003840011464D4A0B4313600BE04B4B1B68BA6894
:100394005200032101FA02F21146474A0B4313604B
:1003A40000BF3B68002B03D03B68012B0CD07BE0E3
:1003B400414B5B680121BA6801FA02F2D24311464B
:1003C4003D4A0B4053600AE03B4B5B680121BA682D
:1003D40001FA02F21146384A0B43536000BF63E04E
:1003E400344B1B6B334A43F0020313637B68032BC8
:1003F4003BD801A252F823F00D040008270400089A
:100404003F040008570400082C4B1B68BA685200CC
:10041400032101FA02F2D2431146284A0B40136029
:1004240023E0264B1B68BA685200012101FA02F24C
:100434001146224A0B43136017E0204B1B68BA682D
:100444005200022101FA02F211461C4A0B431360C6
:100454000BE01A4B1B68BA685200032101FA02F23E
:100464001146164A0B43136000BF3B68002B03D0B0
:100474003B68012B0CD016E0104B5B680121BA6875
:1004840001FA02F2D24311460C4A0B4053600AE0CF
:100494000A4B5B680121BA6801FA02F21146074A65
:1004A4000B43536000BF00BF00BF1437BD465DF867
:1004B400047B704700380240000002400004024000
:1004C40080B487B000AF0346B9607A60FB73FB7BEE
:1004D400412B02D0422B2DD059E0304B1B68BA6817
:1004E4005200032101FA02F21A40BB685B0022FAAF
:1004F40003F3012B1BD17B68002B0AD0274B5B69CC
:100504000121BA6801FA02F21146244A0B435361ED
:100514000AE0224B5B690121BA6801FA02F2D24374
:1005240011461E4A0B4053610023FB752FE0012343
:10053400FB752CE01A4B1B68BA685200012101FAC2
:1005440002F21A40BB685B0022FA03F3012B1BD1B1
:100554007B68002B0AD0124B5B690121BA6801FA4F
:1005640002F211460E4A0B4353610AE00C4B5B69DD
:100574000121BA6801FA02F2D2431146084A0B403B
:1005840053610023FB7501E00123FB7500BFFB7D74
:1005940018461C37BD465DF8047B704700000240D6
:1005A4000004024070B50D4D0D4C641BA4100026D0
:1005B400A64209D10B4D0C4C00F018F8641BA41092
:1005C4000026A64205D170BD55F8043B9847013674
:1005D400EEE755F8043B98470136F2E73006000889
:1005E400300600083006000834060008F8B500BFDD
:1005F400F8BC08BC9E467047F8B500BFF8BC08BC00
:040604009E46704757
:100608003F000000300000006D000000790000008D
:10061800720000005B0000005F0000003100000075
:080628007F0000007B000000D0
:04063000B901000804
:040634009501000824
:04000005080002AD40
:00000001FF
