:020000040800F2
:1000000000000120B10400080105000801050008F6
:1000100001050008010500080105000800000000B6
:1000200000000000000000000000000001050008C2
:100030000105000800000000010500080105000896
:100040000105000801050008010500080105000878
:100050000105000801050008010500080105000868
:100060000105000801050008010500080105000858
:100070000105000801050008010500080105000848
:100080000105000801050008010500080000000046
:100090000000000000000000000000000105000852
:1000A0000105000801050008010500080105000818
:1000B0000105000801050008010500080105000808
:1000C00001050008010500080105000801050008F8
:1000D00001050008010500080105000800000000F6
:1000E00001050008010500080105000800000000E6
:1000F00000000000000000000000000001050008F2
:1001000000000000010500080105000801050008C5
:1001100000000000000000000000000000000000DF
:100120000105000801050008010500080105000897
:1001300001050008000000000000000000000000B1
:1001400000000000000000000000000001050008A1
:100150000105000801050008010500080105000867
:100160000105000801050008000000000000000073
:10017000000000000000000000000000000000007F
:100180000000000001050008000000000000000061
:04019000010500085D
:1001940010B5054C237833B9044B13B10448AFF3BD
:1001A40000800123237010BD3C00002000000000EB
:1001B4004C05000808B5034B1BB103490348AFF3D2
:1001C400008008BD00000000400000204C0500082D
:1001D40080B483B000AF0346FB71084B1B68FA7907
:1001E400012101FA02F21146044A0B43136000BFD5
:1001F4000C37BD465DF8047B704700BF30380240C1
:1002040090B482B000AF0446084611461A4623460D
:10021400FB710346BB710B467B7113463B71FA7944
:10022400564913465B001344DB000B441B681968F2
:10023400BB795B00032202FA03F3DB431C46FA7921
:100244004E4813465B001344DB0003441B6801EA79
:1002540004021A60FA79494913465B001344DB002F
:100264000B441B6819687A79BB795B0002FA03F3C3
:100274001C46FA79414813465B001344DB000344EF
:100284001B6841EA04021A60FA793C4913465B0090
:100294001344DB000B4404331B681968BB79012247
:1002A40002FA03F3DB431C46FA79344813465B0035
:1002B4001344DB00034404331B6801EA04021A609C
:1002C400FA792E4913465B001344DB000B440433D4
:1002D4001B6819683B7903F00102BB7902FA03F346
:1002E4001C46FA79254813465B001344DB0003449B
:1002F40004331B6841EA04021A60FA791F49134661
:100304005B001344DB000B440C331B681968BB7996
:100314005B00032202FA03F3DB431C46FA79174815
:1003240013465B001344DB0003440C331B6801EAEF
:1003340004021A60FA79114913465B001344DB0086
:100344000B440C331B6819683B795B1003F0030200
:10035400BB795B0002FA03F31C46FA79074813469B
:100364005B001344DB0003440C331B6841EA0402C2
:100374001A6000BF0837BD4690BC704700000020DB
:1003840080B500AF0020FFF723FF002302220221E3
:100394000020FFF735FF00F00DF8044B1B68044AFA
:1003A400D35C184600F046F8FEE700BF5800002072
:1003B4003000002080B400AF194B1B68184A43F486
:1003C40000331360174B40F283621A60164B1B68AC
:1003D400154A43F008031360134B1B68124A23F4B5
:1003E40080531360104B1B680F4A43F4005313608F
:1003F4000D4B1B680C4A23F4004313600B4B1B6822
:100404000A4A23F440531360094B1B68084A43F417
:10041400E063136000BFBD465DF8047B704700BF16
:1004240040380240084400400C440040104400405E
:100434002000024080B483B000AF0346FB7110E09B
:100444000D4B1B680D4AD25C0D4B1A600A4B1B689E
:100454000133094A13600B4B1B6803F04003002B64
:10046400EED1054B1B680B2BF5DD00BF00BF0C372D
:10047400BD465DF8047B7047580000203000002022
:10048400044400400044004080B400AF064BD3F85D
:100494008830054A43F47003C2F8883000BFBD4673
:1004A4005DF8047B704700BF00ED00E0DFF834D056
:1004B4000D480E490E4A002302E0D458C4500433B8
:1004C400C4188C42F9D30B4A0B4C002301E013608F
:1004D4000432A242FBD3FFF7D7FF00F011F8FFF775
:1004E4004FFF704700000120000000203C00002066
:1004F4006C0500083C0000205C000020FEE70000C2
:1005040070B50D4D0D4C641BA4100026A64209D1F4
:100514000B4D0C4C00F018F8641BA4100026A642E6
:1005240005D170BD55F8043B98470136EEE755F800
:10053400043B98470136F2E76405000864050008A7
:100544006405000868050008F8B500BFF8BC08BCDD
:100554009E467047F8B500BFF8BC08BC9E4670477D
:04056400B9010008D1
:0405680095010008F1
:10056C000000024004000240080002400C0002405F
:10057C001000024014000240000402400404024037
:10058C00080402400C04024010040240140402400F
:0C059C0048656C6C6F20576F726C640037
:04000005080004B13A
:00000001FF
