:020000040800F2
:1000000000000120210500087105000871050008A5
:100010007105000871050008710500080000000066
:100020000000000000000000000000007105000852
:100030007105000800000000710500087105000846
:1000400071050008710500087105000871050008B8
:1000500071050008710500085104000871050008C9
:100060007105000871050008710500087105000898
:100070007105000871050008710500087105000888
:1000800071050008710500087105000800000000F6
:1000900000000000000000000000000071050008E2
:1000A0007105000871050008710500087105000858
:1000B0007105000871050008710500087105000848
:1000C0007105000871050008710500087105000838
:1000D00071050008710500087105000800000000A6
:1000E0007105000871050008710500080000000096
:1000F0000000000000000000000000007105000882
:100100000000000071050008710500087105000875
:1001100000000000000000000000000000000000DF
:1001200071050008710500087105000871050008D7
:100130007105000800000000000000000000000041
:100140000000000000000000000000007105000831
:1001500071050008710500087105000871050008A7
:100160007105000871050008000000000000000093
:10017000000000000000000000000000000000007F
:1001800000000000710500080000000000000000F1
:0401900071050008ED
:1001940010B5054C237833B9044B13B10448AFF3BD
:1001A40000800123237010BD3000002000000000F7
:1001B400BC05000808B5034B1BB103490348AFF362
:1001C400008008BD0000000034000020BC050008C9
:1001D40080B483B000AF0346FB71084B1B68FA7907
:1001E400012101FA02F21146044A0B43136000BFD5
:1001F4000C37BD465DF8047B704700BF30380240C1
:1002040090B482B000AF0446084611461A4623460D
:10021400FB710346BB710B467B7113463B71FA7944
:10022400564913465B001344DB000B441B681968F2
:10023400BB795B00032202FA03F3DB431C46FA7921
:100244004E4813465B001344DB0003441B6801EA79
:1002540004021A60FA79494913465B001344DB002F
:100264000B441B6819687A79BB795B0002FA03F3C3
:100274001C46FA79414813465B001344DB000344EF
:100284001B6841EA04021A60FA793C4913465B0090
:100294001344DB000B4404331B681968BB79012247
:1002A40002FA03F3DB431C46FA79344813465B0035
:1002B4001344DB00034404331B6801EA04021A609C
:1002C400FA792E4913465B001344DB000B440433D4
:1002D4001B6819683B7903F00102BB7902FA03F346
:1002E4001C46FA79254813465B001344DB0003449B
:1002F40004331B6841EA04021A60FA791F49134661
:100304005B001344DB000B440C331B681968BB7996
:100314005B00032202FA03F3DB431C46FA79174815
:1003240013465B001344DB0003440C331B6801EAEF
:1003340004021A60FA79114913465B001344DB0086
:100344000B440C331B6819683B795B1003F0030200
:10035400BB795B0002FA03F31C46FA79074813469B
:100364005B001344DB0003440C331B6841EA0402C2
:100374001A6000BF0837BD4690BC704700000020DB
:1003840090B484B000AF0346FB710B46BB711346B7
:100394007B71FA792C4913465B001344DB000B4450
:1003A4001B681B68BA795200032101FA02F21A4051
:1003B400BB795B0022FA03F3012B3DD17B79002B3F
:1003C4001BD0FA79204913465B001344DB000B442D
:1003D40014331B681968BB79012202FA03F31C4623
:1003E400FA79194813465B001344DB0003441433C1
:1003F4001B6841EA04021A601BE0FA7912491346A9
:100404005B001344DB000B4414331B681968BB798D
:10041400012202FA03F3DB431C46FA790A48134625
:100424005B001344DB00034414331B6801EA040239
:100434001A600023FB7301E00123FB73FB7B184666
:100444001037BD4690BC70470000002080B500AF57
:100454000A4B1B68DB43094A1360084B1B68DBB279
:100464001A4603210120FFF78BFF054B1B68044A42
:1004740043F00103136000BF80BD00BF4C000020A7
:10048400143C014080B500AF0120FFF7A1FE00231A
:10049400012203210120FFF7B3FE114B1B68104A10
:1004A40043F4804313600F4B1B680E4A43F001036F
:1004B40013600D4B1B680C4A43F0010313600B4B94
:1004C4001B680A4A43F001031360094B1B68084A7E
:1004D40043F001031360074B40221A60FEE700BF9C
:1004E4004438024008380140003C0140083C0140C7
:1004F4000C3C014000E100E080B400AF064BD3F8AF
:100504008830054A43F47003C2F8883000BFBD4602
:100514005DF8047B704700BF00ED00E0DFF834D0E5
:100524000D480E490E4A002302E0D458C450043347
:10053400C4188C42F9D30B4A0B4C002301E013601E
:100544000432A242FBD3FFF7D7FF00F011F8FFF704
:1005540099FF7047000001200000002030000020B7
:10056400DC0500083000002050000020FEE70000F9
:1005740070B50D4D0D4C641BA4100026A64209D184
:100584000B4D0C4C00F018F8641BA4100026A64276
:1005940005D170BD55F8043B98470136EEE755F890
:1005A400043B98470136F2E7D4050008D405000857
:1005B400D4050008D8050008F8B500BFF8BC08BC8D
:1005C4009E467047F8B500BFF8BC08BC9E4670470D
:0405D400B901000861
:0405D8009501000881
:1005DC000000024004000240080002400C000240EF
:1005EC0010000240140002400004024004040240C7
:1005FC00080402400C04024010040240140402409F
:0400000508000521C9
:00000001FF
