:020000040800F2
:1000000000000120C90200081903000819030008B4
:100010001903000819030008190300080000000074
:1000200000000000000000000000000019030008AC
:100030001903000800000000190300081903000854
:100040001903000819030008190300081903000820
:100050001903000819030008190300081903000810
:100060001903000819030008190300081903000800
:1000700019030008190300081903000819030008F0
:100080001903000819030008190300080000000004
:10009000000000000000000000000000190300083C
:1000A00019030008190300081903000819030008C0
:1000B00019030008190300081903000819030008B0
:1000C00019030008190300081903000819030008A0
:1000D00019030008190300081903000800000000B4
:1000E00019030008190300081903000800000000A4
:1000F00000000000000000000000000019030008DC
:100100000000000019030008190300081903000883
:1001100000000000000000000000000000000000DF
:10012000190300081903000819030008190300083F
:10013000190300080000000000000000000000009B
:10014000000000000000000000000000190300088B
:10015000190300081903000819030008190300080F
:100160001903000819030008000000000000000047
:10017000000000000000000000000000000000007F
:10018000000000001903000800000000000000004B
:040190001903000847
:1001940010B5054C237833B9044B13B10448AFF3BD
:1001A40000800123237010BD000000200000000027
:1001B4000807000808B5034B1BB103490348AFF314
:1001C400008008BD000000000400002008070008AB
:1001D400B0B58EB000AF05237B6308E0796B0023D4
:1001E4000122422000F098F87B6B01337B637B6B28
:1001F400072BF3DD012300220321422000F08CF8B9
:10020400264B3C461D460FCD0FC495E80F0084E8ED
:100214000F0000233B633CE00321422000F012FA6C
:1002240003467B620023FB6202E0FB6A0133FB624C
:10023400FB6A40F6B7329342F7DD0321422000F017
:1002440001FA03463B627B6A03F00803002B1DD0CE
:100254003A6A7B6A9A4219D00523BB6213E0B96AF1
:100264003B6B9B0007F13802134453F8383C0120E0
:10027400BA6A00FA02F213401A46422000F070F9FA
:10028400BB6A0133BB62BB6A072BE8DD3B6B0133FE
:100294003B633B6B072BBFDDBBE700BF20070008B8
:1002A40080B400AF064BD3F88830054A43F470039A
:1002B400C2F8883000BFBD465DF8047B704700BFBC
:1002C40000ED00E0DFF834D00D480E490E4A00235B
:1002D40002E0D458C4500433C4188C42F9D30B4AF6
:1002E4000B4C002301E013600432A242FBD3FFF75E
:1002F400D7FF00F0E3F9FFF76BFF70470000012020
:100304000000002000000020480700080000002032
:100314001C000020FEE7000080B485B000AFB96087
:100324007A603B600346FB73FB7B412B02D0422B7C
:1003340064D009E1874B1B6B864A43F001031363C6
:100344007B68032B3BD801A252F823F06103000819
:100354007B03000893030008AB0300087E4B1B6873
:10036400BA685200032101FA02F2D24311467A4AD2
:100374000B40136023E0784B1B68BA6852000121DC
:1003840001FA02F21146744A0B43136017E0724BF0
:100394001B68BA685200022101FA02F211466E4A41
:1003A4000B4313600BE06C4B1B68BA6852000321CB
:1003B40001FA02F21146684A0B43136000BF3B681E
:1003C400002B03D03B68012B0CD0BDE0624B5B6873
:1003D4000121BA6801FA02F2D24311465E4A0B4087
:1003E40053600AE05C4B5B680121BA6801FA02F2CF
:1003F4001146594A0B43536000BFA5E0554B1B6B94
:10040400544A43F0020313637B68032B00F29B807E
:1004140001A252F823F000BF2D040008C50400080F
:1004240019050008310500084C4B1B68BA685200D6
:10043400032101FA02F2D2431146484A0B401360E9
:100444003B68032B7ED801A252F823F06104000814
:100454007B04000893040008AB0400083F4BDB68EE
:10046400BA685200032101FA02F2D24311463B4A10
:100474000B40D36023E0394BDB68BA68520001219A
:1004840001FA02F21146354A0B43D36017E0334BAD
:10049400DB68BA685200022101FA02F211462F4ABF
:1004A4000B43D3600BE02D4BDB68BA685200032189
:1004B40001FA02F21146294A0B43D36000BF41E01E
:1004C400264B1B68BA685200012101FA02F2114658
:1004D400224A0B4313603B68002B03D03B68012B7B
:1004E4000CD030E01D4B5B680121BA6801FA02F2BE
:1004F400D2431146194A0B4053600AE0174B5B681C
:100504000121BA6801FA02F21146144A0B435360FE
:1005140000BF18E0114B1B68BA685200022101FAAF
:1005240002F211460D4A0B4313600CE00B4B1B689F
:10053400BA685200032101FA02F21146074A0B433A
:10054400136000E000BF00BF00BF1437BD465DF874
:10055400047B70470038024000000240000402405F
:1005640080B487B000AF0346B9607A60FB73FB7B4D
:10057400412B02D0422B2DD059E0304B1B68BA6876
:100584005200032101FA02F21A40BB685B0022FA0E
:1005940003F3012B1BD17B68002B0AD0274B5B692B
:1005A4000121BA6801FA02F21146244A0B4353614D
:1005B4000AE0224B5B690121BA6801FA02F2D243D4
:1005C40011461E4A0B4053610023FB752FE00123A3
:1005D400FB752CE01A4B1B68BA685200012101FA22
:1005E40002F21A40BB685B0022FA03F3012B1BD111
:1005F4007B68002B0AD0124B5B690121BA6801FAAF
:1006040002F211460E4A0B4353610AE00C4B5B693C
:100614000121BA6801FA02F2D2431146084A0B409A
:1006240053610023FB7501E00123FB7500BFFB7DD3
:1006340018461C37BD465DF8047B70470000024035
:100644000004024080B483B000AF03463960FB71FC
:10065400FB79412B02D0422B11D024E0154B1B68AF
:100664003A685200032101FA02F21A403B685B0027
:1006740022FA03F3002B13D10E4B1B6910E00E4B2F
:100684001B683A685200012101FA02F21A403B68E1
:100694005B0022FA03F3002B04D1074B1B6901E032
:1006A40000BF00E000BF00BF18460C37BD465DF830
:1006B400047B7047000002400004024070B50D4DF9
:1006C4000D4C641BA4100026A64209D10B4D0C4C02
:1006D40000F018F8641BA4100026A64205D170BDD2
:1006E40055F8043B98470136EEE755F8043B984724
:1006F4000136F2E7400700084007000840070008F9
:1007040044070008F8B500BFF8BC08BC9E46704713
:0C071400F8B500BFF8BC08BC9E4670475A
:100720000000000020000000400000006000000009
:1007300080000000A0000000C0000000E0000000F9
:04074000B9010008F3
:040744009501000813
:04000005080002C924
:00000001FF
